:100000000C942A000C9434000C9434000C943400AA
:100010000C9434000C9434000C9434000C94340090
:100020000C9434000C9434000C9434000C94340080
:100030000C9434000C9434000C9434000C94340070
:100040000C9434000C9434000C9434000C94340060
:100050000C94340011241FBECFE5D4E0DEBFCDBF29
:100060000E94AC000C9452010C9400009BB3282F0A
:10007000207F9F70292B2BBBD898D99A25E0922FEF
:100080009A95F1F7D998E0E2F3E03197F1F79BB355
:100090008295807F9F70982B9BBBD99A2A95F1F708
:1000A000D99880E49FE10197F1F708959BB3282F39
:1000B000207F9F70292B2BBBD89AD99A25E0922FAD
:1000C0009A95F1F7D998E0E2F3E03197F1F79BB315
:1000D0008295807F9F70982B9BBBD99A2A95F1F7C8
:1000E000D99880E49FE10197F1F70895CF93DF93CA
:1000F000EC0103C00E945600219688818823D1F725
:10010000DF91CF91089581E00E94360080E49FE165
:100110000197F1F780E80E94360008958FEF8ABBBF
:1001200088EC90E020E931E0F9013197F1F701978F
:10013000D9F782E00E94360088E20E9436008CE007
:100140000E94360086E00E9436000E94830080EE06
:100150009EE20197F1F708956F927F928F929F929E
:10016000AF92BF92CF92DF92EF92FF920F931F93C5
:10017000DF93CF93CDB7DEB7C85CD0400FB6F8940D
:10018000DEBF0FBECDBF6DB67EB614BA83B3882373
:10019000E9F385E08A95F1F76E010894C11CD11C42
:1001A0007601E0E2F3E0BE0167537F4FD7011C9276
:1001B00040E020E030E083B390E0022E02C0880FE0
:1001C000991F0A94E2F7482BCF010197F1F72F5FAF
:1001D0003F4F2830310579F7D7014D937D01A617A0
:1001E000B70721F70E948E0080E9882E81E0982EC3
:1001F000BDB6AEB68DB79EB70A970FB6F8949EBF40
:100200000FBE8DBF0DB71EB70F5F1F4F0E9483003B
:10021000C801B6014AE050E00E9443010E94760006
:1002200088EE93E0F4013197F1F70197D9F78B2D20
:100230009A2D9C010FB6F8943EBF0FBE2DBFAAE0C9
:10024000B0E0CA0EDB1ECE14DF0491F680E090E031
:100250000FB6F8947EBE0FBE6DBEC853DF4F0FB60B
:10026000F894DEBF0FBECDBFCF91DF911F910F91EC
:10027000FF90EF90DF90CF90BF90AF909F908F90C6
:100280007F906F900895FB01DC014150504048F091
:1002900001900D920020C9F701C01D9241505040BD
:0802A000E0F70895F894FFCF88
:00000001FF
