:100000000C942A000C943F000C943F000C943F0089
:100010000C943F000C943F000C943F000C943F0064
:100020000C943F000C943F000C943F000C943F0054
:100030000C943F000C943F000C943F000C943F0044
:100040000C943F000C943F000C943F000C943F0034
:100050000C943F0011241FBECFE5D4E0DEBFCDBF1E
:1000600010E0A0E6B0E0E8E9F1E002C005900D92F2
:10007000AC36B107D9F70E94B0000C94CA000C94BA
:1000800000009BB3282F207F9F70292B2BBBD89873
:10009000D99A25E0922F9A95F1F7D998E0E2F3E00A
:1000A0003197F1F79BB38295807F9F70982B9BBB14
:1000B000D99A2A95F1F7D99880E49FE10197F1F751
:1000C00008959BB3282F207F9F70292B2BBBD89A94
:1000D000D99A25E0922F9A95F1F7D998E0E2F3E0CA
:1000E0003197F1F79BB38295807F9F70982B9BBBD4
:1000F000D99A2A95F1F7D99880E49FE10197F1F711
:100100000895CF93DF93EC0103C00E946100219614
:1001100088818823D1F7DF91CF91089581E00E94F3
:10012000410080EE9EE20197F1F780E80E944100D5
:1001300008958AB3836F8ABB88EC90E020E931E0B0
:10014000F9013197F1F70197D9F782E00E94410058
:100150008EE00E94410080EE9EE20197F1F7089543
:10016000DF93CF93CDB7DEB72C970FB6F894DEBFF1
:100170000FBECDBFDE011196E0E6F0E08CE001900D
:100180000D928150E1F70E949900CE0101960E94E4
:080190008100FFCFF894FFCFBE
:0C01980048656C6C6F204E696D612100A1
:00000001FF
