:100000000C942A000C943F000C943F000C943F0089
:100010000C943F000C943F000C943F000C943F0064
:100020000C943F000C943F000C943F000C943F0054
:100030000C943F000C943F000C943F000C943F0044
:100040000C943F000C943F000C943F000C943F0034
:100050000C943F0011241FBECFE5D4E0DEBFCDBF1E
:1000600011E0A0E6B0E0EAE3F1E002C005900D92F5
:10007000A832B107D9F70E9441000C949B000C9460
:1000800000000F931F93DF93CF93CDB7DEB7C85C0B
:10009000D0400FB6F894DEBF0FBECDBF8FEF8ABB46
:1000A0001BBAE199FECFDE011196E0E6F0E088ECA4
:1000B00001900D928150E1F78E010F5F1F4FC80133
:1000C00060E070E048EC50E00E94840080EA9FE02D
:1000D0000197F1F7F80120EA3FE004C08BBBC901AA
:1000E0000197F1F781918823C9F71BBA80E090E06E
:1000F000C853DF4F0FB6F894DEBF0FBECDBFCF9110
:10010000DF911F910F910895DC01CB0103C02D9168
:100110000E948F0041505040D0F70895262FE1995A
:10012000FECF9FBB8EBB2DBB0FB6F894E29AE19A2F
:0A0130000FBE01960895F894FFCF6A
:10013A0041565220697320612066616D696C79208D
:10014A006F66206D6963726F636F6E74726F6C6C29
:10015A0065727320646576656C6F70656420736977
:10016A006E636520313939362062792041746D65B4
:10017A006C2C206163717569726564206279204D07
:10018A006963726F6368697020546563686E6F6C27
:10019A006F677920696E20323031362E20546865B7
:1001AA00736520617265206D6F6469666965642094
:1001BA00486172766172642061726368697465630A
:1001CA007475726520382D62697420524953432030
:1001DA0073696E676C652D63686970206D696372F7
:1001EA006F636F6E74726F6C6C6572732E205468D5
:0801FA00617427732069740091
:00000001FF
