:100000000C9432000C944F000C944F000C944F0051
:100010000C944F000C944F000C944F000C944F0024
:100020000C944F000C944F000C944F000C944F0014
:100030000C944F000C944F000C944F000C944F0004
:100040000C944F000C944F000C944F000C947601CC
:100050000C944F003738392F3435362A3132332D4E
:1000600043303D2B11241FBECFE5D4E0DEBFCDBF12
:1000700010E0A0E6B0E0E8E6F3E002C005900D92E3
:10008000A237B107D9F710E0A2E7B0E001C01D9296
:10009000AE37B107E1F70E949F010C94B2010C94B6
:1000A00000009BB3282F207F9F70292B2BBBD89853
:1000B000D99A22E0922F9A95F1F7D998E0E9F1E0E8
:1000C0003197F1F79BB38295807F9F70982B9BBBF4
:1000D000D99A2A95F1F7D99880EA9FE00197F1F72C
:1000E00008959BB3282F207F9F70292B2BBBD89A74
:1000F000D99A22E0922F9A95F1F7D998E0E9F1E0A8
:100100003197F1F79BB38295807F9F70982B9BBBB3
:10011000D99A2A95F1F7D99880EA9FE00197F1F7EB
:100120000895CF93DF93EC0103C00E9471002196E4
:1001300088818823D1F7DF91CF91089581E00E94D3
:10014000510080E797E10197F1F780E80E945100A4
:1001500008958AB3836F8ABB80E49CE90197F1F725
:1001600082E00E94510088E20E9451008EE00E94CD
:10017000510080E797E10197F1F7089584B3806F0C
:1001800084BB85B38F6085BB0895DF93CF930F92B7
:10019000CDB7DEB780EF8983998183B38170892BD6
:1001A00089839981999902C080E001C082E0892BFE
:1001B000898399819A9902C080E001C084E0892BEB
:1001C000898399819B9902C080E001C088E0892BD6
:1001D000898389818F3F11F480E001C08FEF90E027
:1001E0000F90CF91DF9108950E94C500892BE1F710
:1001F000089540E45CE928EC30E0BFEEAFED7FEB22
:100200006FE785B38F7085BB000083B38F708F302D
:10021000C1F7CA010197F1F783B38F708F30C9F32B
:1002200080E991E0F9013197F1F70197D9F783B3AC
:100230008F708F3071F3B5BB000083B38F708F3038
:1002400029F080937C0010927D0020C0A5BB0000A7
:1002500083B38F708F3021F080937C0081E014C0D5
:1002600075BB000083B38F708F3021F080937C00CA
:1002700082E00AC065BB000083B38F708F3009F441
:10028000C0CF80937C0083E080937D0080917C00D0
:100290008E3039F4E0917D00F0E0EC5AFF4F84910C
:1002A00008958D3039F4E0917D00F0E0E85AFF4F79
:1002B00084910895E0917D008B3029F4F0E0E45AB8
:1002C000FF4F84910895F0E0E05AFF4F8491089524
:1002D00012BE83B7886083BF83B7826083BF83B752
:1002E000816083BF89B7826089BF08951F920F9292
:1002F0000FB60F9211242F933F934F935F936F93F9
:100300007F938F939F93AF93BF93EF93FF9380EC73
:100310000E9451000E94F9000E947100FF91EF912C
:10032000BF91AF919F918F917F916F915F914F910D
:100330003F912F910F900FBE0F901F9018950E9424
:10034000A90080E690E00E94910080EC0E9451009C
:1003500084B3806F84BB85B38F6085BB0E946801C6
:080360007894FFCFF894FFCF61
:10036800507265737320616E79206B65792E2E2E1D
:02037800000083
:00000001FF
