:100000000C942B000C94A5000C9453000C945300FA
:100010000C9453000C9453000C9453000C94530014
:100020000C9453000C9455000C9453000C94530002
:100030000C9453000C9453000C9453000C945300F4
:100040000C9453000C9453000C9453000C945300E4
:100050000C945300DB0011241FBECFE5D4E0DEBFBB
:10006000CDBF10E0A0E6B0E0E2E3F2E002C0059010
:100070000D92A237B107D9F710E0A2E7B0E001C0B6
:100080001D92A937B107E1F710E0C6E5D0E004C042
:100090002297FE010E941301C435D107C9F70E94BF
:1000A000B9000C9417010C9400001F920F920FB628
:1000B0000F9211242F933F935F936F937F938F93AE
:1000C0009F93AF93BF93EF93FF93809176009091AE
:1000D00077000196909377008093760020916C00D2
:1000E00030916D008217930701F5109277001092FE
:1000F00076002091720030917300F901EE0FFF1F1E
:10010000E05AFF4F80818BBB80917000882319F0EB
:10011000C901019602C0C901039664E070E00E9423
:10012000EA008093720090937300FF91EF91BF916A
:10013000AF919F918F917F916F915F913F912F919F
:100140000F900FBE0F901F9018951F920F920FB631
:100150000F9211248F939F938091700091E08927D3
:10016000809370009F918F910F900FBE0F901F9002
:1001700018958AB38F608ABB83B7816083BF8091F3
:10018000740082BF78942091780060E433E049E104
:1001900050E09A99FECF2223E1F789B7816089BFA9
:1001A0006BBF35BF88E893E1FA013197F1F701970A
:1001B00021E0D1F7EECF8091680090916900209105
:1001C0006A0030916B00821B930B909375008093B3
:1001D0007400089597FB092E07260AD077FD04D0F6
:1001E0000CD006D000201AF4709561957F4F0895C9
:1001F000F6F7909581959F4F0895AA1BBB1B51E17F
:1002000007C0AA1FBB1FA617B70710F0A61BB70B86
:10021000881F991F5A95A9F780959095BC01CD012B
:100220000895EE0FFF1F0590F491E02D0994F894C6
:02023000FFCFFE
:10023200050006000A000900000114005E01010029
:020242000100B9
:00000001FF
