:100000000C942A000C9447000C9447000C94470071
:100010000C9447000C9447000C9447000C94470044
:100020000C9447000C9447000C9447000C946B0010
:100030000C9447000C9447000C9447000C94470024
:100040000C9447000C9447000C9447000C94470014
:100050000C94470011241FBECFE5D4E0DEBFCDBF16
:1000600010E0A0E6B0E0E8E3F2E002C005900D92F7
:10007000A836B107D9F710E0A8E6B0E001C01D929C
:10008000AA36B107E1F70E94C6000C941A010C943D
:1000900000009B01AC018AB188698AB980B5866885
:1000A00080BD64E0220F331F441F551F6A95D1F7AE
:1000B00060E072E18AE790E00E94E400C901DA01A1
:1000C000215029B90197A109B109892F9A2FAB2F86
:1000D000BB2780BD08951F920F920FB60F92112477
:1000E000EF92FF920F931F932F933F934F935F9342
:1000F0006F937F938F939F93AF93BF93CF93DF9330
:10010000EF93FF938CB1082F10E04091680050915D
:100110006900C0E0D0E0E8ECEE2EF12C19C0FA0145
:10012000EE0FFF1FE05AFF4F80818295807F82BBD8
:10013000CA01019664E070E00E94D100AC0128EE93
:1001400033E0F7013197F1F721503040D1F7219694
:10015000C017D10724F35093690040936800FF91C2
:10016000EF91DF91CF91BF91AF919F918F917F914F
:100170006F915F914F913F912F911F910F91FF9040
:10018000EF900F900FBE0F901F90189581B3806F66
:1001900081BB60E875E280E090E00E9449007894BD
:1001A000FFCF97FB092E07260AD077FD04D02ED06B
:1001B00006D000201AF4709561957F4F0895F6F7E8
:1001C000909581959F4F0895A1E21A2EAA1BBB1B03
:1001D000FD010DC0AA1FBB1FEE1FFF1FA217B30713
:1001E000E407F50720F0A21BB30BE40BF50B661F29
:1001F000771F881F991F1A9469F7609570958095ED
:1002000090959B01AC01BD01CF010895AA1BBB1BBA
:1002100051E107C0AA1FBB1FA617B70710F0A61B06
:10022000B70B881F991F5A95A9F780959095BC0127
:08023000CD010895F894FFCF01
:08023800050006000A000900A0
:00000001FF
