:100000000C9432000C944F000C944F000C944F0051
:100010000C944F000C944F000C944F000C944F0024
:100020000C944F000C944F000C944F000C944F0014
:100030000C944F000C944F000C944F000C944F0004
:100040000C944F000C944F000C944F000C944F00F4
:100050000C944F003738392F3435362A3132332D4E
:1000600043303D2B11241FBECFE5D4E0DEBFCDBF12
:1000700010E0A0E6B0E0E2EAF4E002C005900D92E4
:10008000A238B107D9F710E0A2E8B0E001C01D9294
:10009000A039B107E1F70E9468010C944F020C945B
:1000A00000009BB3282F207F9F70292B2BBBD89853
:1000B000D99A22E0922F9A95F1F7D998E0E9F1E0E8
:1000C0003197F1F79BB38295807F9F70982B9BBBF4
:1000D000D99A2A95F1F7D99880EA9FE00197F1F72C
:1000E00008959BB3282F207F9F70292B2BBBD89A74
:1000F000D99A22E0922F9A95F1F7D998E0E9F1E0A8
:100100003197F1F79BB38295807F9F70982B9BBBB3
:10011000D99A2A95F1F7D99880EA9FE00197F1F7EB
:100120000895CF93DF93EC0103C00E9471002196E4
:1001300088818823D1F7DF91CF91089581E00E94D3
:10014000510080E797E10197F1F780E80E945100A4
:1001500008958AB3836F8ABB80E49CE90197F1F725
:1001600082E00E94510088E20E9451008EE00E94CD
:10017000510080E797E10197F1F7089584B3806F0C
:1001800084BB85B38F6085BB0895DF93CF930F92B7
:10019000CDB7DEB780EF8983998183B38170892BD6
:1001A00089839981999902C080E001C082E0892BFE
:1001B000898399819A9902C080E001C084E0892BEB
:1001C000898399819B9902C080E001C088E0892BD6
:1001D000898389818F3F11F480E001C08FEF90E027
:1001E0000F90CF91DF9108950E94C500892BE1F710
:1001F000089540E45CE928EC30E0BFEEAFED7FEB22
:100200006FE785B38F7085BB000083B38F708F302D
:10021000C1F7CA010197F1F783B38F708F30C9F32B
:1002200080E991E0F9013197F1F70197D9F783B3AC
:100230008F708F3071F3B5BB000083B38F708F3038
:1002400029F080938C0010928D0020C0A5BB000087
:1002500083B38F708F3021F080938C0081E014C0C5
:1002600075BB000083B38F708F3021F080938C00BA
:1002700082E00AC065BB000083B38F708F3009F441
:10028000C0CF80938C0083E080938D0080918C00A0
:100290008E3039F4E0918D00F0E0EC5AFF4F8491FC
:1002A00008958D3039F4E0918D00F0E0E85AFF4F69
:1002B00084910895E0918D008B3029F4F0E0E45AA8
:1002C000FF4F84910895F0E0E05AFF4F8491089524
:1002D000AF92BF92CF92DF92EF92FF920F931F9354
:1002E000DF93CF93CDB7DEB760970FB6F894DEBF3C
:1002F0000FBECDBF81B38F6081BB0E94A90080E695
:1003000090E00E94910080EC0E94510080E790E014
:100310000E94910084B3806F84BB85B38F6085BBDE
:100320006E010894C11CD11C48ECA42EB12C0E9473
:10033000F90089830E947100860131E0E32EF12CDF
:1003400009C00E94F900D8018C930894E11CF11CAB
:100350000E947100F7013197D8018D918D0183348E
:1003600081F7EC0DFD1D10820E949E0000E010E060
:1003700024C0802F8F5C0E94710080E80E94510091
:1003800080918E0090918F00FC01EE0FFF1FE658C8
:10039000FF4F208122BB019664E070E00E940202C0
:1003A00090938F0080938E0088EE93E0F501319753
:1003B000F1F70197D9F70F5F1F4FC6010E9429027D
:1003C00008171907B4F288EE93E0F5013197F1F7B9
:1003D0000197D9F780E090E0F601E80FF91F10824D
:1003E00001968E159F05C4F30E949E0080E690E062
:1003F0000E94910080EC0E94510080E790E00E94F2
:10040000910095CF97FB092E07260AD077FD04D0DF
:100410000CD006D000201AF4709561957F4F089596
:10042000F6F7909581959F4F0895AA1BBB1B51E14C
:1004300007C0AA1FBB1FA617B70710F0A61BB70B54
:10044000881F991F5A95A9F780959095BC01CD01F9
:100450000895FC0188279927E89421912032E9F337
:10046000293010F02E30C8F32B3241F02D3239F400
:10047000689404C00E944702820F911D219120536D
:100480002A30C0F31EF4909581959F4F08957AE02D
:10049000979F902D879F802D910D11240895F8949A
:0204A000FFCF8C
:1004A200577269746520737465707320616E64009D
:1004B200707265737320433A2000050006000A003B
:0204C20009002F
:00000001FF
