:100000000C942B000C9456010C9453000C94530048
:100010000C9453000C9453000C9453000C94530014
:100020000C9453000C94C0000C9453000C94530097
:100030000C9453000C9453000C9453000C945300F4
:100040000C9453000C9453000C9453000C945300E4
:100050000C945300ED0111241FBECFE5D4E0DEBFA8
:10006000CDBF10E0A0E6B0E0E6E6F4E002C0059007
:100070000D92A638B107D9F710E0A6E8B0E001C0AC
:100080001D92A339B107E1F710E0C6E5D0E004C046
:100090002297FE010E942D02C435D107C9F70E94A4
:1000A0006C010C9431020C9400009BB3282F207F2C
:1000B0009F70292B2BBBD898D99A21E0922F9A9523
:1000C000F1F7D99892E49A95F1F79BB38295807FE6
:1000D0009F70982B9BBBD99A2A95F1F7D99884EFFA
:1000E00091E00197F1F708959BB3282F207F9F702F
:1000F000292B2BBBD89AD99A21E0922F9A95F1F708
:10010000D99892E49A95F1F79BB38295807F9F707E
:10011000982B9BBBD99A2A95F1F7D99884EF91E057
:100120000197F1F70895CF93DF93EC0103C00E948C
:100130007400219688818823D1F7DF91CF910895AB
:1001400081E00E9455008EEE92E00197F1F780E881
:100150000E94550008958AB3836F8ABB88E893E1B3
:100160000197F1F782E00E94550088E20E94550055
:100170008CE00E9455008EEE92E00197F1F7089511
:100180001F920F920FB60F9211242F933F934F930C
:100190005F936F937F938F939F93AF93BF93EF93EF
:1001A000FF9380919000882309F46FC040918C00E8
:1001B00050918D009A012F5F3F4F30938D00209317
:1001C0008C0080918E0090918F002817390709F0DC
:1001D0005CC010928D0010928C0080918500882365
:1001E00089F09A012153304030938F0020938E0084
:1001F00080917F00909180002817390751F5109267
:10020000850027C09A012D5C3F4F30938F002093CB
:100210008E00809181009091820028173907C9F4DF
:1002200091E09093850080918400892780938400D9
:10023000809191009091920001969093920080930A
:100240009100029731F41092920010929100109256
:1002500090002091880030918900F901EE0FFF1F76
:10026000ED58FF4F80818BBB80918400882319F06B
:10027000C901019602C0C901039664E070E00E94C2
:1002800004028093880090938900FF91EF91BF91C1
:10029000AF919F918F917F916F915F914F913F911E
:1002A0002F910F900FBE0F901F9018951F920F92D5
:1002B0000FB60F9211248F9380919000882321F420
:1002C00081E08093900002C0109290008F910F9077
:1002D0000FBE0F901F901895DF92EF92FF920F9331
:1002E0001F93CF93DF9384B38F6084BB17BA11BA87
:1002F0000E94AB00109287001092860088E085BBB8
:100300000E94A00080E690E00E94930021E0E22E8F
:10031000F12C04E098E0D92EC2E0D0E01AE086B3D8
:1003200090E087709070892B09F449C08091860015
:1003300090918700019709F442C00E94A00088E6CE
:1003400090E00E949300B09903C0B19901C0B299A6
:1003500005BBF0928700E0928600E1CF8091860095
:1003600090918700029789F10E94A0008DE690E0AD
:100370000E949300809903C0819901C0829915BBA6
:10038000D0938700C0938600CACF80B390E0877077
:100390009070892B09F0C3CF8091860090918700DF
:1003A000892B09F4BCCF0E94A00080E690E00E9457
:1003B0009300D5BA1092870010928600B0CF80B318
:1003C00090E087709070892B49F686B390E0877033
:1003D0009070892B09F0A3CFD8CF80917B009091AA
:1003E0007C0020917D0030917E00821B930B9093C6
:1003F0008B0080938A00809181009091820090937D
:100400008F0080938E00089597FB092E07260AD04F
:1004100077FD04D00CD006D000201AF470956195B9
:100420007F4F0895F6F7909581959F4F0895AA1BE9
:10043000BB1B51E107C0AA1FBB1FA617B70710F0CF
:10044000A61BB70B881F991F5A95A9F78095909501
:10045000BC01CD010895EE0FFF1F0590F491E02D32
:060460000994F894FFCF9F
:10046600464F5257415244004C4546540052494764
:10047600485400050006000A000900000114003275
:0604860000DC050101018C
:00000001FF
