:100000000C942A000C9447000C9447000C94470071
:100010000C9447000C9447000C9447000C94470044
:100020000C9447000C9447000C9447000C94720009
:100030000C9447000C9447000C9447000C94470024
:100040000C9447000C9447000C9447000C94470014
:100050000C94470011241FBECFE5D4E0DEBFCDBF16
:1000600010E0A0E6B0E0E6E6F2E002C005900D92F6
:10007000A836B107D9F710E0A8E6B0E001C01D929C
:10008000AC36B107E1F70E94CD000C9431010C941D
:1000900000009B01AC018AB188698AB980B5866885
:1000A00080BD64E0220F331F441F551F6A95D1F7AE
:1000B00060E072E18AE790E00E94FB00C901DA018A
:1000C000215029B90197A109B109892F9A2FAB2F86
:1000D000BB2780BD08951ABA379A86B1876086B962
:1000E0003E9A08951F920F920FB60F921124EF922D
:1000F000FF920F931F932F933F934F935F936F93B1
:100100007F938F939F93AF93BF93CF93DF93EF939F
:10011000FF938CB1082F10E040916A0050916B0062
:10012000C0E0D0E0E8ECEE2EF12C19C0FA01EE0FA1
:10013000FF1FE05AFF4F80818295807F82BBCA01FA
:10014000019664E070E00E94E800AC0128EE33E024
:10015000F7013197F1F721503040D1F72196C017C0
:10016000D10724F350936B0040936A00FF91EF9105
:10017000DF91CF91BF91AF919F918F917F916F91BF
:100180005F914F913F912F911F910F91FF90EF90B1
:100190000F900FBE0F901F90189581B3806F81BB99
:1001A00060E875E280E090E00E9449000E946B00E8
:1001B00078942AE1369A03C0822F8A95F1F7349B0E
:1001C000FBCF84B195B10197969587958CB9F2CF05
:1001D00097FB092E07260AD077FD04D02ED006D033
:1001E00000201AF4709561957F4F0895F6F7909569
:1001F00081959F4F0895A1E21A2EAA1BBB1BFD01FA
:100200000DC0AA1FBB1FEE1FFF1FA217B307E407F5
:10021000F50720F0A21BB30BE40BF50B661F771F4D
:10022000881F991F1A9469F760957095809590952D
:100230009B01AC01BD01CF010895AA1BBB1B51E17D
:1002400007C0AA1FBB1FA617B70710F0A61BB70B46
:10025000881F991F5A95A9F780959095BC01CD01EB
:060260000895F894FFCFA1
:08026600050006000A00090072
:00000001FF
