:100000000C942B000C9453000C9453000C9453004C
:100010000C9453000C9453000C9453000C94530014
:100020000C9453000C9455000C9453000C94530002
:100030000C9453000C9453000C9453000C945300F4
:100040000C9453000C9453000C9453000C945300E4
:100050000C945300AF0011241FBECFE5D4E0DEBFE7
:10006000CDBF10E0A0E6B0E0ECE8F1E002C0059002
:100070000D92AE36B107D9F710E0AEE6B0E001C0A0
:100080001D92A437B107E1F710E0C6E5D0E004C047
:100090002297FE010E94C000C435D107C9F70E9413
:1000A0008D000C94C4000C9400001F920F920FB6A8
:1000B0000F9211242F933F938F939F93EF93FF936E
:1000C00080917100909172000196909372008093DC
:1000D000710020916C0030916D008217930791F4AC
:1000E000109272001092710080916E00E82FF0E083
:1000F000EE0FFF1FE05AFF4F90819BBB8F5F837015
:1001000080936E00FF91EF919F918F913F912F917E
:100110000F900FBE0F901F9018958AB38F608ABB07
:1001200083B7816083BF80916F0082BF78942091F4
:10013000730049E150E09A99FECF222329F489B750
:10014000816089BF21E003C089B719BE20E088E83B
:1001500093E1FA013197F1F7019769F3FACF8091B2
:1001600068009091690020916A0030916B00821BB9
:10017000930B9093700080936F000895EE0FFF1F14
:0C0180000590F491E02D0994F894FFCF55
:0E018C00050006000A000900000114005E01D3
:00000001FF
