:100000000C942B000C9453000C9453000C9453004C
:100010000C9453000C9453000C9453000C94530014
:100020000C94B0000C9455000C9453000C945300A5
:100030000C9453000C9453000C9453000C945300F4
:100040000C9453000C9453000C9453000C945300E4
:100050000C945300130111241FBECFE5D4E0DEBF82
:10006000CDBF10E0A0E6B0E0E8E8F2E002C0059005
:100070000D92A237B107D9F710E0A2E7B0E001C0B6
:100080001D92A038B107E1F710E0C6E5D0E004C04A
:100090002297FE010E943E01C435D107C9F70E9494
:1000A000FA000C9442010C9400001F920F920FB6BC
:1000B0000F9211248F93EF93FF9380916600882312
:1000C00079F0E0917800F0E0E959FF4F808182BB40
:1000D00087E085BB1092660081E080937C0038C089
:1000E00080917C00882379F0E0917900F0E0E95973
:1000F000FF4F808182BB8BE085BB10927C0081E04A
:1001000080937D0025C080917D00882379F0E09167
:100110007A00F0E0E959FF4F808182BB8DE085BB1A
:1001200010927D0081E080937E0012C080917E005D
:10013000882371F0E0917B00F0E0E959FF4F808166
:1001400082BB8EE085BB10927E0081E080936600CA
:10015000FF91EF918F910F900FBE0F901F90189508
:100160001F920F920FB60F9211242F933F934F932C
:100170005F936F937F938F939F938091760090917D
:1001800077009DBD8CBD409178004F5F842F6AE061
:100190000E94300130917900380F832F0E94300186
:1001A00020917A00280F822F0E94300150917B000D
:1001B000580F842F0E94300190937800832F0E9463
:1001C000300190937900822F0E94300190937A0041
:1001D000852F0E94300190937B009F918F917F919A
:1001E0006F915F914F913F912F910F900FBE0F90A4
:1001F0001F9018958FE084BB8FE781BB15BA83B73A
:10020000826083BF8EB582608EBD8091720082BF96
:1002100080917600909177009DBD8CBD89B78560F7
:1002200089BF7894FFCF8091600090916100209108
:10023000620030916300821B930B90937300809354
:10024000720080917400909175002091640030914B
:100250006500821B930B909377008093760008953E
:10026000991B79E004C0991F961708F0961B881F08
:100270007A95C9F780950895EE0FFF1F0590F491C8
:08028000E02D0994F894FFCF72
:1002880000016400FAFF013F065B4F666D7D077F42
:02029800EF0075
:00000001FF
