:100000000C9432000C944F000C944F000C944F0051
:100010000C944F000C944F000C944F000C944F0024
:100020000C944F000C944F000C944F000C944F0014
:100030000C944F000C944F000C944F000C944F0004
:100040000C944F000C944F000C944F000C944F00F4
:100050000C944F003738392F3435362A3132332D4E
:1000600043303D2B11241FBECFE5D4E0DEBFCDBF12
:1000700010E0A0E6B0E0E4E1F6E002C005900D92E9
:10008000AC3CB107D9F710E0ACECB0E001C01D9278
:10009000A93DB107E1F70E948A010C9408030C9472
:1000A00000009BB3282F207F9F70292B2BBBD89853
:1000B000D99A22E0922F9A95F1F7D998E0E9F1E0E8
:1000C0003197F1F79BB38295807F9F70982B9BBBF4
:1000D000D99A2A95F1F7D99880EA9FE00197F1F72C
:1000E00008959BB3282F207F9F70292B2BBBD89A74
:1000F000D99A22E0922F9A95F1F7D998E0E9F1E0A8
:100100003197F1F79BB38295807F9F70982B9BBBB3
:10011000D99A2A95F1F7D99880EA9FE00197F1F7EB
:100120000895CF93DF93EC0103C00E9471002196E4
:1001300088818823D1F7DF91CF91089581E00E94D3
:10014000510080E797E10197F1F780E80E945100A4
:1001500008958AB3836F8ABB80E49CE90197F1F725
:1001600082E00E94510088E20E9451008EE00E94CD
:10017000510080E797E10197F1F7089584B3806F0C
:1001800084BB85B38F6085BB0895DF93CF930F92B7
:10019000CDB7DEB780EF8983998183B38170892BD6
:1001A00089839981999902C080E001C082E0892BFE
:1001B000898399819A9902C080E001C084E0892BEB
:1001C000898399819B9902C080E001C088E0892BD6
:1001D000898389818F3F11F480E001C08FEF90E027
:1001E0000F90CF91DF9108950E94C500892BE1F710
:1001F000089540E45CE928EC30E0BFEEAFED7FEB22
:100200006FE785B38F7085BB000083B38F708F302D
:10021000C1F7CA010197F1F783B38F708F30C9F32B
:1002200080E991E0F9013197F1F70197D9F783B3AC
:100230008F708F3071F3B5BB000083B38F708F3038
:1002400029F08093D6001092D70020C0A5BB0000F3
:1002500083B38F708F3021F08093D60081E014C07B
:1002600075BB000083B38F708F3021F08093D60070
:1002700082E00AC065BB000083B38F708F3009F441
:10028000C0CF8093D60083E08093D7008091D600C2
:100290008E3039F4E091D700F0E0EC5AFF4F8491B2
:1002A00008958D3039F4E091D700F0E0E85AFF4F1F
:1002B00084910895E091D7008B3029F4F0E0E45A5E
:1002C000FF4F84910895F0E0E05AFF4F8491089524
:1002D0009B01AC018AB188698AB980B5866880BD06
:1002E00064E0220F331F441F551F6A95D1F760E069
:1002F00072E18AE790E00E94C002C901DA01215050
:1003000029B90197A109B109892F9A2FAB2FBB27D2
:1003100080BD08952F923F924F925F926F927F928D
:100320008F929F92AF92BF92CF92DF92EF92FF9205
:100330000F931F93DF93CF93CDB7DEB7A4970FB67C
:10034000F894DEBF0FBECDBF899A60E875E280E009
:1003500090E00E9468010E94A90080E690E00E945F
:10036000910080EC0E9451008CE690E00E94910088
:1003700084B3806F84BB85B38F6085BB7894DE01C6
:100380001196E6ECF0E085E001900D928150E1F7E6
:10039000DE011696E6ECF0E085E001900D928150CA
:1003A000E1F76CC00E94F900D8018D938D010E9485
:1003B000710002151305B1F70E949E0080E690E0DF
:1003C0000E94910080EC0E94510087E790E00E941B
:1003D000910086010E94F900F80181938F010E942B
:1003E000710004151505B1F70E949E0041E020E060
:1003F00030E0F301E20FF31FD501A20FB31F90818C
:100400008C91981340E0F401E20FF31FD601A20F84
:10041000B31F90818C91981340E02F5F3F4F2430A1
:10042000310539F7442389F084E890E00E94910077
:10043000F1E0F093D80080ED97E0F7013197F1F704
:100440000197D9F70E949E0039C08CE890E00E9485
:10045000910080ED97E0F7013197F1F70197D9F717
:100460000E949E0080E690E00E94910080EC0E9435
:1004700051008CE690E00E94910020C08BE0A82EF5
:10048000B12CAC0EBD1E0FE0202E312C2C0E3D1ECB
:1004900010E1C12ED12CCC0EDD1EB4E14B2E512C1F
:1004A0004C0E5D1E3E010894611C711CA6E08A2E54
:1004B000912C8C0E9D1EF8ECEF2EF12C8091D80023
:1004C000882311F485016ECF87E990E00E949100A6
:1004D00080EC0E94510087EA90E00E949100E5E1E3
:1004E000CE2ED12CCC0EDD1E0E94F9008D8B0E94E9
:1004F0007100860171E0E72EF12C09C00E94F9001D
:10050000D8018C930894E11CF11C0E947100F70142
:100510003197D8018D918D01833481F7EC0DFD1D4C
:1005200010820E949E00C6010E94E2028CB981EBFB
:1005300090E00E94910080EC0E9451008CEB90E0D2
:100540000E9491000E94F9008334E1F70E9471003B
:1005500080E090E0F601E80FF91F108201968E15F9
:100560009F05C4F30E949E0087E990E00E949100DD
:1005700080EC0E94510087EA90E00E949100B4CF85
:10058000A1E21A2EAA1BBB1BFD010DC0AA1FBB1F97
:10059000EE1FFF1FA217B307E407F50720F0A21B09
:1005A000B30BE40BF50B661F771F881F991F1A9476
:1005B00069F760957095809590959B01AC01BD01A0
:1005C000CF010895FC0188279927E89421912032D2
:1005D000E9F3293010F02E30C8F32B3241F02D32E0
:1005E00039F4689404C00E940003820F911D219188
:1005F00020532A30C0F31EF4909581959F4F0895A3
:100600007AE0979F902D879F802D910D112408955A
:04061000F894FFCF8C
:100614004C6F67696E20706167652100456E746573
:10062400722049443A2000456E746572205061730B
:10063400733A200057656C636F6D21005472792002
:10064400616761696E21005772697465207374650E
:10065400707320616E6400707265737320433A2076
:10066400005072657373204320746F00636F6E745F
:0C067400696E753A20003132333400000A
:00000001FF
