:100000000C942B000C9453000C9453000C9453004C
:100010000C9453000C9453000C9453000C94530014
:100020000C94F4020C9453000C9453000C94530061
:100030000C9453000C9453000C9453000C945300F4
:100040000C9453000C9453000C9453000C945300E4
:100050000C945300C00011241FBECFE5D4E0DEBFD6
:10006000CDBF10E0A0E6B0E0E4E9FDE002C00590FD
:100070000D92AA3BB107D9F710E0AAEBB0E001C09E
:100080001D92A73CB107E1F710E0C6E5D0E004C03F
:100090002297FE010E94E503C435D107C9F70E94EB
:1000A000CF000C94C8060C9400009BB3282F207F2F
:1000B0009F70292B2BBBD898D99A21E0922F9A9523
:1000C000F1F7D99892E49A95F1F79BB38295807FE6
:1000D0009F70982B9BBBD99A2A95F1F7D99884EFFA
:1000E00091E00197F1F708959BB3282F207F9F702F
:1000F000292B2BBBD89AD99A21E0922F9A95F1F708
:10010000D99892E49A95F1F79BB38295807F9F707E
:10011000982B9BBBD99A2A95F1F7D99884EF91E057
:100120000197F1F70895CF93DF93EC0103C00E948C
:100130007400219688818823D1F7DF91CF910895AB
:1001400081E00E9455008EEE92E00197F1F780E881
:100150000E94550008958AB3836F8ABB88E893E1B3
:100160000197F1F782E00E94550088E20E94550055
:100170008FE00E9455008EEE92E00197F1F708950E
:100180008091BD009091BE002091B8003091B900DF
:10019000821B930B9093C0008093BF0008952F9211
:1001A0003F924F925F926F927F928F929F92AF9207
:1001B000BF92CF92DF92EF92FF920F931F93DF9344
:1001C000CF93CDB7DEB72F970FB6F894DEBF0FBE33
:1001D000CDBF8EB581608EBD8091BF009091C00073
:1001E0009DBD8CBD78940E94AB007E010894E11CFB
:1001F000F11CC70160E670E00E94E903C7010E949C
:10020000930080EC0E94550000D000D000D0EDB7E4
:10021000FEB73196ADB7BEB71296FC92EE9211972B
:100220000BE610E0138302838091BC00992787FDC1
:100230009095958384830E94F0038DB79EB70696B0
:100240000FB6F8949EBF0FBE8DBFC7010E949300EA
:1002500049E1A42EB12C670136E7432E30E0532E3E
:100260002EEE822E22E0922E93E8692E90E0792ED7
:100270008BE3282E3324339481C0B09B30C088E8B0
:1002800093E1F5013197F1F70197D9F73092C30067
:1002900080EC0E94550000D000D000D0EDB7FEB732
:1002A0003196ADB7BEB71196CC9211971296DC92EB
:1002B000538242828091BB00992787FD9095958358
:1002C00084830E94F0038DB79EB706960FB6F8940C
:1002D0009EBF0FBE8DBFC7010E9493004FC0B19B50
:1002E00011C088EB9BE0F5013197F1F70197D9F741
:1002F0008091BC008F5F8093BC008831B1F4109274
:10030000BC0013C0B29B3AC088EB9BE0F50131976B
:10031000F1F70197D9F78091BC0081508093BC0020
:100320008F3F19F497E19093BC0080EC0E94550038
:1003300000D000D000D0EDB7FEB73196ADB7BEB754
:100340001196CC9211971296DC92028313838091BE
:10035000BC00992787FD9095958384830E94F003C4
:100360008DB79EB706960FB6F8949EBF0FBE8DBF91
:10037000C7010E949300C4010197F1F78091C30067
:10038000882309F47ACF80C0B09B30C088E893E11D
:10039000F5013197F1F70197D9F73092C40080EC5D
:1003A0000E94550000D000D000D0EDB7FEB73196C6
:1003B000ADB7BEB71196CC9211971296DC927382AC
:1003C00062828091BA00992787FD909595838483F6
:1003D0000E94F0038DB79EB706960FB6F8949EBFA5
:1003E0000FBE8DBFC7010E9493004EC0B19B11C0CC
:1003F00088EB9BE0F5013197F1F70197D9F78091F0
:10040000BB008F5F8093BB008C33A9F41092BB00BC
:1004100012C0B29B39C088EB9BE0F5013197F1F730
:100420000197D9F78091BB0081508093BB008F3F2B
:1004300011F42092BB0080EC0E94550000D000D047
:1004400000D0EDB7FEB73196ADB7BEB71196CC92DE
:1004500011971296DC92538242828091BB009927B9
:1004600087FD9095958384830E94F0038DB79EB796
:1004700006960FB6F8949EBF0FBE8DBFC7010E94AF
:100480009300C4010197F1F78091C400882309F417
:100490007BCFA4C0B09B54C088E893E1F5013197AD
:1004A000F1F70197D9F73092C50081E00E9455001D
:1004B0008CE00E945500C70160E970E00E94E903EA
:1004C000C7010E94930080EC0E945500ADB7BEB7F3
:1004D0001A970FB6F894BEBF0FBEADBFEDB7FEB70B
:1004E00031961196CC9211971296DC9280EA90E0A8
:1004F000938382838091BC00992787FD9095958393
:1005000084838091BB00992787FD9095978386838C
:100510008091BA00992787FD9095918780870E94E6
:10052000F003ADB7BEB71A960FB6F894BEBF0FBEB4
:10053000ADBFC7010E94930089B7846089BF4EC0D8
:10054000B19B11C088EB9BE0F5013197F1F7019762
:10055000D9F78091BA008F5F8093BA008C33A9F4E9
:100560001092BA0012C0B29B39C088EB9BE0F50133
:100570003197F1F70197D9F78091BA0081508093B4
:10058000BA008F3F11F42092BA0080EC0E9455000F
:1005900000D000D000D0EDB7FEB73196ADB7BEB7F2
:1005A0001196CC9211971296DC927382628280919E
:1005B000BA00992787FD9095958384830E94F00364
:1005C0008DB79EB706960FB6F8949EBF0FBE8DBF2F
:1005D000C7010E949300C4010197F1F78091C50003
:1005E000882309F457CFCACE1F920F920FB60F92ED
:1005F00011240F931F932F933F934F935F936F9308
:100600007F938F939F93AF93BF93EF93FF93DF936A
:10061000CF93CDB7DEB72897DEBFCDBF8091BF00A7
:100620009091C0009DBD8CBD8091C500882309F4C8
:10063000B1C08091C1009091C20001969093C20018
:100640008093C1000E9709F0A6C01092C2001092CC
:10065000C1009091C600992329F48091BA0081507D
:100660008093BA002091BC002223D1F58091BB0079
:100670008823B1F58091BA00882391F5992309F078
:100680008AC081E08093C6000E9455008E010F5FF2
:100690001F4FC8016FEA70E00E94E903C8010E9481
:1006A000930080EC0E9455008DB79EB70A970FB655
:1006B000F8949EBF0FBE8DBFEDB7FEB73196ADB7B4
:1006C000BEB712961C930E93119780EA90E0938325
:1006D00082831582148217821682118610864CC07E
:1006E000992309F058C08091BA008F3F41F48BE301
:1006F0008093BA008091BB0081508093BB008091B1
:10070000BB008F3F29F41092BB0021502093BC0006
:100710008091BC008F3F11F41092BC0080EC0E94CD
:100720005500ADB7BEB71A970FB6F894BEBF0FBE4F
:10073000ADBFEDB7FEB731968E010F5F1F4F12961A
:100740001C930E93119780EA90E0938382838091AB
:10075000BC00992787FD9095958384838091BB0089
:10076000992787FD9095978386838091BA00992772
:1007700087FD9095918780870E94F0038DB79EB783
:100780000A960FB6F8949EBF0FBE8DBFC8010E9497
:10079000930001C0FFCF2896DEBFCDBFCF91DF9180
:1007A000FF91EF91BF91AF919F918F917F916F9149
:1007B0005F914F913F912F911F910F910F900FBE1D
:1007C0000F901F901895EE0FFF1F0590F491E02DEC
:1007D0000994FB01DC0101900D920020E1F70895DE
:1007E000AEE0B0E0E6EFF3E00C949F060D891E89C1
:1007F00086E08C831A8309838FEF9FE79E838D8326
:100800009E01275E3F4FCE0101966F89788DA90129
:100810000E9414042F813885020F131FF8011082E3
:100820002E96E4E00C94BB06ABE0B0E0EAE1F4E025
:100830000C9491063C012B015A01FC01178216828F
:10084000838181FD03C06FEF7FEFC6C19AE0892EDF
:100850001E010894211C311CF3012381F20123FDA8
:10086000859123FF81912F01882309F4B2C185323C
:1008700039F423FD859123FF81912F01853229F4DD
:1008800090E0B3010E940706E7CF982FFF24EE24E3
:100890009924FFE1FF15D0F09B3269F09C3228F4D7
:1008A000903259F0933291F40EC09D3249F090335A
:1008B00069F441E024C052E0F52A84E0F82A28C017
:1008C00098E0F92A25C0E0E1FE2A22C0F7FC29C001
:1008D000892F80538A3070F4F6FE05C0989C902CC6
:1008E0001124980E15C0E89CE02C1124E80EF0E2CB
:1008F000FF2A0EC09E3229F4F6FC6BC140E4F42AB4
:1009000007C09C3619F450E8F52A02C0983649F41D
:10091000F20123FD959123FF91912F01992309F075
:10092000B8CF892F8554833018F08052833038F443
:1009300044E050E0A40EB51E5FE359830FC0933628
:1009400031F0933779F0933509F056C020C0F501A6
:100950008081898342E050E0A40EB51E610101E070
:1009600010E012C0F501C080D180F6FC03C06FEF2B
:100970007FEF02C0692D70E042E050E0A40EB51E8A
:10098000C6010E94FC058C015FE7F52214C0F50149
:10099000C080D180F6FC03C06FEF7FEF02C0692DED
:1009A00070E042E050E0A40EB51EC6010E94F105C1
:1009B0008C0150E8F52AF3FE07C01AC080E290E0EF
:1009C000B3010E940706EA948E2D90E008171907DC
:1009D000A8F30EC0F601F7FC8591F7FE81916F0137
:1009E00090E0B3010E940706E110EA940150104024
:1009F0000115110579F7EAC0943611F0993669F5B9
:100A0000F7FE08C0F501208131814281538184E0E5
:100A100090E00AC0F501808191819C01442737FD57
:100A20004095542F82E090E0A80EB91E9FE6F9226F
:100A300057FF09C050954095309521953F4F4F4F36
:100A40005F4FE0E8FE2ACA01B901A1012AE030E0C7
:100A50000E943306D82ED21840C0953729F41F2D96
:100A60001F7E2AE030E01DC01F2D197F9F3661F0E8
:100A7000903720F4983509F0ACC00FC0903739F0AA
:100A8000983709F0A6C004C028E030E00AC0106121
:100A900014FD146020E130E004C014FD166020E174
:100AA00032E017FF08C0F501608171818281938176
:100AB00044E050E008C0F50180819181BC0180E0F4
:100AC00090E042E050E0A40EB51EA1010E94330662
:100AD000D82ED2188FE7F82EF122F6FE0BC05EEF6B
:100AE000F522D91438F4F4FE07C0F2FC05C08FEEED
:100AF000F82202C01D2D01C0192DF4FE0DC0FE010B
:100B0000ED0DF11D8081803319F499EEF92208C0B2
:100B10001F5FF2FE05C003C08F2D867809F01F5FAE
:100B20000F2DF3FC14C0F0FE0FC01E1510F09D2C0D
:100B30000BC09D2C9E0C911A1E2D06C080E290E0E9
:100B4000B3010E9407061F5F1E15C0F304C01E15E7
:100B500010F4E11A01C0EE2404FF0FC080E390E01E
:100B6000B3010E94070602FF1DC001FD03C088E714
:100B700090E00EC088E590E00BC0802F867891F061
:100B800001FF02C08BE201C080E2F7FC8DE290E041
:100B9000B3010E94070606C080E390E0B3010E9403
:100BA00007069A94D914C0F3DA94F101ED0DF11D02
:100BB000808190E0B3010E940706DD20A9F706C0FE
:100BC00080E290E0B3010E940706EA94EE20C1F7AC
:100BD00043CEF30166817781CB012B96E2E10C9441
:100BE000AD06FC010590615070400110D8F780956A
:100BF00090958E0F9F1F0895FC01615070400190E9
:100C00000110D8F7809590958E0F9F1F08950F9330
:100C10001F93CF93DF938C01EB018B8181FF1BC06E
:100C200082FF0DC02E813F818C819D81281739075D
:100C300064F4E881F9810193F983E88306C0E885CB
:100C4000F985802F0995892B31F48E819F8101963A
:100C50009F838E8302C00FEF1FEFC801DF91CF91FA
:100C60001F910F910895FA01AA27283051F12031E0
:100C700081F1E8946F936E7F6E5F7F4F8F4F9F4F30
:100C8000AF4FB1E03ED0B4E03CD0670F781F891F72
:100C90009A1FA11D680F791F8A1F911DA11D6A0F40
:100CA000711D811D911DA11D20D009F468943F91F3
:100CB0002AE0269F11243019305D3193DEF6CF01F2
:100CC0000895462F4770405D4193B3E00FD0C9F7B8
:100CD000F6CF462F4F70405D4A3318F0495D31FD25
:100CE0004052419302D0A9F7EACFB4E0A695979578
:100CF000879577956795BA95C9F70097610571054E
:100D000008959B01AC010A2E069457954795379597
:100D10002795BA95C9F7620F731F841F951FA01DF1
:100D200008952F923F924F925F926F927F928F928F
:100D30009F92AF92BF92CF92DF92EF92FF920F936A
:100D40001F93CF93DF93CDB7DEB7CA1BDB0B0FB674
:100D5000F894DEBF0FBECDBF09942A883988488831
:100D60005F846E847D848C849B84AA84B984C884C7
:100D7000DF80EE80FD800C811B81AA81B981CE0FBE
:100D8000D11D0FB6F894DEBF0FBECDBFED010895A3
:040D9000F894FFCF05
:100D940053657420416C61726D3A00484F55523A64
:100DA4002025303264004D494E5554453A202530B3
:100DB4003264005345434F4E443A20253032640098
:100DC40052656D61696E696E672054696D653A009C
:100DD400253032643A253032643A25303264004199
:0A0DE4004C41524D212121000F0067
:00000001FF
