:100000000C9432000C944F000C944F000C944F0051
:100010000C944F000C944F000C944F000C944F0024
:100020000C944F000C944F000C944F000C944F0014
:100030000C944F000C944F000C944F000C944F0004
:100040000C944F000C944F000C944F000C944F00F4
:100050000C944F003738392F3435362A3132332D4E
:1000600043303D2B11241FBECFE5D4E0DEBFCDBF12
:1000700010E0A0E6B0E0E2E5F4E002C005900D92E9
:10008000AC39B107D9F710E0ACE9B0E001C01D927E
:10009000A93AB107E1F70E9468010C9427020C9479
:1000A00000009BB3282F207F9F70292B2BBBD89853
:1000B000D99A22E0922F9A95F1F7D998E0E9F1E0E8
:1000C0003197F1F79BB38295807F9F70982B9BBBF4
:1000D000D99A2A95F1F7D99880EA9FE00197F1F72C
:1000E00008959BB3282F207F9F70292B2BBBD89A74
:1000F000D99A22E0922F9A95F1F7D998E0E9F1E0A8
:100100003197F1F79BB38295807F9F70982B9BBBB3
:10011000D99A2A95F1F7D99880EA9FE00197F1F7EB
:100120000895CF93DF93EC0103C00E9471002196E4
:1001300088818823D1F7DF91CF91089581E00E94D3
:10014000510080E797E10197F1F780E80E945100A4
:1001500008958AB3836F8ABB80E49CE90197F1F725
:1001600082E00E94510088E20E9451008EE00E94CD
:10017000510080E797E10197F1F7089584B3806F0C
:1001800084BB85B38F6085BB0895DF93CF930F92B7
:10019000CDB7DEB780EF8983998183B38170892BD6
:1001A00089839981999902C080E001C082E0892BFE
:1001B000898399819A9902C080E001C084E0892BEB
:1001C000898399819B9902C080E001C088E0892BD6
:1001D000898389818F3F11F480E001C08FEF90E027
:1001E0000F90CF91DF9108950E94C500892BE1F710
:1001F000089540E45CE928EC30E0BFEEAFED7FEB22
:100200006FE785B38F7085BB000083B38F708F302D
:10021000C1F7CA010197F1F783B38F708F30C9F32B
:1002200080E991E0F9013197F1F70197D9F783B3AC
:100230008F708F3071F3B5BB000083B38F708F3038
:1002400029F08093A6001092A70020C0A5BB000053
:1002500083B38F708F3021F08093A60081E014C0AB
:1002600075BB000083B38F708F3021F08093A600A0
:1002700082E00AC065BB000083B38F708F3009F441
:10028000C0CF8093A60083E08093A7008091A60052
:100290008E3039F4E091A700F0E0EC5AFF4F8491E2
:1002A00008958D3039F4E091A700F0E0E85AFF4F4F
:1002B00084910895E091A7008B3029F4F0E0E45A8E
:1002C000FF4F84910895F0E0E05AFF4F8491089524
:1002D0004F925F926F927F928F929F92AF92BF9256
:1002E000CF92DF92EF92FF920F931F93DF93CF9302
:1002F000CDB7DEB764970FB6F894DEBF0FBECDBFA3
:1003000087B3886487BB0E94A90080E690E00E94C2
:10031000910080EC0E9451008CE690E00E949100D8
:1003200084B3806F84BB85B38F6085BBDE0111967B
:10033000E7E9F0E085E001900D928150E1F7DE0100
:100340001696E7E9F0E085E001900D928150E1F723
:100350005AC00E94F900F80181938F010E94710038
:1003600004151505B1F781E00E94510080E690E088
:100370000E94910080EC0E94510087E790E00E946B
:10038000910087010E94F900F80181938F010E947A
:10039000710006151705B1F781E00E94510041E098
:1003A00020E030E0F401E20FF31FD601A20FB31FEB
:1003B00090818C91981340E0F501E20FF31FD70173
:1003C000A20FB31F90818C91981340E02F5F3F4F95
:1003D0002430310539F7442349F084E890E00E9445
:1003E000910081E08093A800C39A2AC0C69A8CE845
:1003F00090E00E94910080EC0E9451008CE690E019
:100400000E9491001DC04BE0C42ED12CCC0EDD1EED
:100410003FE0432E512C4C0E5D1E20E1E22EF12CCC
:10042000EC0EFD1E94E1692E712C6C0E7D1E4E01AA
:100430000894811C911C86E0A82EB12CAC0EBD1E28
:100440008091A800882311F4860183CFFFCFF89410
:02045000FFCFDC
:100452004C6F67696E20706167652100456E746537
:10046200722049443A2000456E74657220506173CF
:10047200733A200057656C636F6D210054727920C6
:0C048200616761696E2100313233340083
:00000001FF
