:100000000C942A000C9447000C9447000C94470071
:100010000C9447000C9447000C9447000C94470044
:100020000C9447000C9447000C9447000C94470034
:100030000C9447000C9447000C9447000C94470024
:100040000C9447000C9447000C94BB000C944700A0
:100050000C94470011241FBECFE5D4E0DEBFCDBF16
:1000600011E0A0E6B0E0E0E8F5E102C005900D92F5
:10007000A83BB107D9F711E0A8EBB1E001C01D9290
:10008000A03CB107E1F70E94CF000C94BE0A0C948B
:10009000000095B3282F207F9F70292B25BBA8989F
:1000A000A99A21E0922F9A95F1F7A99892E49A954E
:1000B000F1F795B38295807F9F70982B95BBA99A95
:1000C0002A95F1F7A99884EF91E00197F1F7089547
:1000D00095B3282F207F9F70292B25BBA89AA99A1A
:1000E00021E0922F9A95F1F7A99892E49A95F1F769
:1000F00095B38295807F9F70982B95BBA99A2A957E
:10010000F1F7A99884EF91E00197F1F70895CF9363
:10011000DF93EC0103C00E94680021968881882348
:10012000D1F7DF91CF91089581E00E9449008EEED2
:1001300092E00197F1F780E80E944900089584B3A6
:10014000836F84BB88E893E10197F1F782E00E9416
:10015000490088E20E9449008CE00E9449008EEE2E
:1001600092E00197F1F708951ABA379A86B187603D
:1001700086B93E9A08951F920F920FB60F921124DE
:100180008F939F938091AB0091E089278093AB0080
:100190009F918F910F900FBE0F901F9018957F9297
:1001A0008F929F92AF92BF92CF92DF92EF92FF9287
:1001B0000F931F93DF93CF93CDB7DEB764970FB63E
:1001C000F894DEBF0FBECDBF0E949F000E94B40016
:1001D000889A8BB780628BBF78948E010F5F1F4F18
:1001E000C80160E670E00E941608C8010E948700FE
:1001F00080EC0E94490000D000D000D0EDB7FEB7DF
:100200003196ADB7BEB712961C930E931197B0E717
:10021000EB2EB0E0FB2EF382E2828091AC00909155
:10022000AD00958384830E941D088DB79EB7069606
:100230000FB6F8949EBF0FBE8DBFC8010E94870005
:10024000A9E1AA2EB12CD02E012FCE2C1F2DFEEE0F
:10025000EF2EF2E0FF2EEAE78E2EE0E09E2E7724CE
:1002600073947CC0859B30C088E893E1F501319799
:10027000F1F70197D9F780EC0E94490000D000D037
:1002800000D0EDB7FEB73196ADB7BEB71196DC9290
:10029000119712960C93938282828091AE00909176
:1002A000AF00958384830E941D088DB79EB7069684
:1002B0000FB6F8949EBF0FBE8DBF8D2D902F0E945C
:1002C00087007092BE014AC0869B0DC088EB9BE000
:1002D000F5013197F1F70197D9F78091AC00909132
:1002E000AD0001960EC0879B39C088EB9BE0F501FD
:1002F0003197F1F70197D9F78091AC009091AD005B
:1003000001979093AD008093AC0080EC0E9449006F
:1003100000D000D000D0EDB7FEB73196ADB7BEB774
:100320001196DC92119712960C93C28213838091DE
:10033000AC009091AD00958384830E941D088DB719
:100340009EB706960FB6F8949EBF0FBE8DBF8D2D3B
:10035000902F0E948700C7010197F1F78091BE019D
:10036000882309F47FCF9BC0859B41C088E893E137
:10037000F7013197F1F70197D9F781E00E94490021
:100380008CE00E944900ADB7BEB718970FB6F8943D
:10039000BEBF0FBEADBFEDB7FEB7319612961C9330
:1003A0000E931197938282828091AC009091AD0060
:1003B000958384838091AE009091AF00978386836C
:1003C0000E941D088DB79EB708960FB6F8949EBF81
:1003D0000FBE8DBFC8010E94870080EC0E944900BB
:1003E00089B7846089BF81E08093BF016AC0869B22
:1003F00011C088EB9BE0F7013197F1F70197D9F72E
:100400008091AE009091AF0001969093AF008093E1
:10041000AE001DC0879B55C088EB9BE0F70131976C
:10042000F1F70197D9F78091AE009091AF00019755
:100430009093AF008093AE002091AC003091AD005E
:100440008217930724F43093AF002093AE0080EC22
:100450000E94490000D000D000D0EDB7FEB7319621
:10046000ADB7BEB712961C930E931197B382A282BA
:100470008091AE009091AF00958384830E941D0807
:100480008DB79EB706960FB6F8949EBF0FBE8DBF70
:10049000C8010E948700C6010197F1F712C079E1F7
:1004A000E72EF12C8E010F5F1F4F6AE7A62E60E04A
:1004B000B62E5EEEC52E52E0D52E44E8842E40E0E6
:1004C000942E8091BF01882309F44ECF33E0932E00
:1004D0007E010894E11CF11C2EE9A22E20E0B22E30
:1004E00099E9C92E90E0D92E369A03C0892D8A95B4
:1004F000F1F7349BFBCF04B115B1015010401695B4
:1005000007951093BB010093BA01B801882777FDC6
:100510008095982F0E94910526E636E646EE5FE329
:100520000E94970420E030E040E052E40E946A0418
:100530000E94EF059B01AC017093BD016093BC016B
:100540008091AB00882389F000D000D000D0EDB7B7
:10055000FEB73196ADB7BEB71296FC92EE921197E8
:10056000D382C2821583048310C000D000D000D093
:10057000EDB7FEB73196ADB7BEB71296FC92EE92CC
:100580001197B382A282358324830E941D088DB700
:100590009EB706960FB6F8949EBF0FBE8DBF80EC37
:1005A0000E944900C7010E9487002091BA01309142
:1005B000BB018091AE009091AF00821793070CF4BD
:1005C000909A8091AC009091AD00821793070CF047
:1005D0009098892D8A95F1F787CFA0E0B0E0E3EFFE
:1005E000F2E00C94DF07DC012B01FA019C919230C0
:1005F00008F439C1EB018881823008F433C19430AA
:1006000069F4843009F02FC111969C91119789816A
:10061000981709F428C1A0EBB0E025C1843009F493
:1006200021C18230A9F4923009F01DC19A01AD01B7
:1006300088E0EA010990AE01E90109929E0181502A
:10064000C1F7E201898111969C918923818308C1B8
:10065000923009F407C112962D903C901397EB014C
:100660008A819B811496AD90BD90CD90DC901797B8
:10067000EC80FD800E811F819101281B390BB9018F
:1006800037FF04C066277727621B730B6032710542
:100690000CF061C0121613066CF537014801062EE6
:1006A00004C096948794779467940A94D2F721E0D3
:1006B00030E040E050E004C0220F331F441F551FBC
:1006C0006A95D2F721503040404050402E213F21C2
:1006D00040235123211531054105510521F021E029
:1006E00030E040E050E079018A01E628F728082947
:1006F00019293CC0232BD1F1260E371E35014601A6
:10070000062E04C096948794779467940A94D2F73F
:1007100021E030E040E050E004C0220F331F441FCE
:10072000551F6A95D2F721503040404050402A2151
:100730003B214C215D21211531054105510521F059
:1007400021E030E040E050E059016A01A628B728D6
:10075000C828D9280BC0821593052CF01C01AA24A7
:10076000BB24650103C0EE24FF24870111969C91F0
:10077000D20111968C91981709F445C0992339F04C
:10078000A80197012A193B094C095D0906C0A60179
:1007900095012E193F09400B510B57FD08C01182DE
:1007A0003382228224833583468357831DC081E0B0
:1007B00081833382228288279927DC01821B930B55
:1007C000A40BB50B84839583A683B7830DC0220F3A
:1007D000331F441F551F24833583468357838281EB
:1007E0009381019793838283248135814681578148
:1007F000DA01C9010197A109B1098F5F9F4FAF4F7E
:10080000BF4328F30BC0918333822282EA0CFB1C86
:100810000C1D1D1DE482F5820683178383E080830F
:10082000248135814681578157FF1AC0C901AA2703
:1008300097FDA095BA2F81709070A070B0705695FA
:10084000479537952795822B932BA42BB52B848323
:100850009583A683B7838281938101969383828354
:10086000DF0101C0D201CD01CDB7DEB7E2E10C94CA
:10087000FB07A0E2B0E0EFE3F4E00C94EB07698340
:100880007A838B839C832D833E834F835887E9E053
:10089000EE2EF12CEC0EFD1ECE010196B7010E944A
:1008A00067078E010F5E1F4FCE010596B8010E94AB
:1008B00067078A8991E089278A8BC701B801AE0151
:1008C000475E5F4F0E94ED020E949206A096E6E00E
:1008D0000C940708A0E2B0E0E0E7F4E00C94EB072A
:1008E00069837A838B839C832D833E834F835887D0
:1008F000F9E0EF2EF12CEC0EFD1ECE010196B701B2
:100900000E9467078E010F5E1F4FCE010596B8014A
:100910000E946707C701B801AE01475E5F4F0E94A2
:10092000ED020E949206A096E6E00C940708A0E271
:10093000B0E0EDE9F4E00C94DF0769837A838B8300
:100940009C832D833E834F835887CE010196BE0141
:10095000675F7F4F0E946707CE010596BE016F5EFD
:100960007F4F0E9467079985923088F0898982308D
:10097000C8F0943019F4823051F404C0843029F462
:10098000923081F480EB90E0C6C0923049F420E0D0
:100990009A858A89981321E02A87CE010996BBC0DF
:1009A000823049F420E09A858A89981321E02A8BC5
:1009B000CE014196B0C02D843E844F8458886D8806
:1009C0007E888F88988CEE24FF248701AA24BB247C
:1009D000650140E050E060E070E0E0E0F0E0C1017F
:1009E00081709070892BE9F0E60CF71C081D191D29
:1009F0009A01AB012A0D3B1D4C1D5D1D80E090E06E
:100A0000A0E0B0E0E614F7040805190520F481E041
:100A100090E0A0E0B0E0BA01A901480F591F6A1F99
:100A20007B1FAA0CBB1CCC1CDD1C97FE08C081E000
:100A300090E0A0E0B0E0A82AB92ACA2ADB2A3196C1
:100A4000E032F10549F0660C771C881C991C56941D
:100A5000479437942794C3CFFA85EA892B893C8938
:100A60008B859C85280F391F2E5F3F4F17C0CA0109
:100A700081709070892B61F016950795F794E79433
:100A800080E090E0A0E0B0E8E82AF92A0A2B1B2BCE
:100A900076956795579547952F5F3F4F77FDE7CF41
:100AA0000CC0440F551F661F771F17FD4160EE0CE9
:100AB000FF1C001F111F21503040403090E05907AB
:100AC00090E0690790E4790760F32B8F3C8FDB019E
:100AD000CA018F779070A070B07080349105A10525
:100AE000B10561F447FD0AC0E114F10401051105E7
:100AF00029F0405C5F4F6F4F7F4F40781A8EFE1792
:100B000011F081E08A8F4D8F5E8F6F8F78A383E025
:100B1000898FCE0149960E949206A096E2E10C943C
:100B2000FB07A8E0B0E0E7E9F5E00C94E8079B01DB
:100B3000AC0183E08983DA01C9018827B7FD839579
:100B40009927AA27BB27B82E211531054105510544
:100B500019F482E089833AC08823A9F0203080E02C
:100B6000380780E0480780E8580729F460E070E023
:100B700080E09FEC30C0EE24FF248701E21AF30AE4
:100B8000040B150B02C079018A018EE1C82ED12C0D
:100B9000DC82CB82ED82FE820F831887C801B70109
:100BA0000E94430601971816190684F4082E04C003
:100BB000EE0CFF1C001F111F0A94D2F7ED82FE827B
:100BC0000F831887C81AD90ADC82CB82BA82CE0179
:100BD00001960E9492062896E9E00C940408ACE085
:100BE000B0E0E5EFF5E00C94EF0769837A838B833F
:100BF0009C83CE010196BE016B5F7F4F0E94670709
:100C00008D81823061F1823050F1843021F48E8107
:100C1000882351F12EC02F81388537FD20C06E8189
:100C20002F3131051CF06623F9F023C08EE190E0EE
:100C3000821B930B29853A854B855C8504C05695AC
:100C40004795379527958A95D2F76623B1F0509549
:100C50004095309521953F4F4F4F5F4F0EC020E09C
:100C600030E040E050E009C02FEF3FEF4FEF5FE78B
:100C700004C020E030E040E050E8B901CA012C9601
:100C8000E2E00C940B08EF92FF920F931F937B010D
:100C90008C0180E0E81680E0F80681E0080780E03B
:100CA000180788F48FEFE816F1040105110531F0FB
:100CB00028F088E090E0A0E0B0E017C080E090E08D
:100CC000A0E0B0E012C080E0E81680E0F80680E026
:100CD000080781E0180728F088E190E0A0E0B0E084
:100CE00004C080E190E0A0E0B0E020E230E040E02D
:100CF00050E0281B390B4A0B5B0B04C01695079577
:100D0000F794E7948A95D2F7F701E854FF4F808172
:100D1000281B310941095109C9011F910F91FF9009
:100D2000EF900895DF92EF92FF920F931F93FC01D3
:100D3000E480F58006811781D1808081823048F47B
:100D400080E090E0A0E1B0E0E82AF92A0A2B1B2B12
:100D5000A5C0843009F49FC0823021F4EE24FF2422
:100D6000870105C0E114F1040105110519F4E0E063
:100D7000F0E096C0628173819FEF623879070CF0D2
:100D80005BC022E83FEF261B370B2A3131052CF0E0
:100D900020E030E040E050E02AC0B801A701022E78
:100DA00004C076956795579547950A94D2F781E0E8
:100DB00090E0A0E0B0E004C0880F991FAA1FBB1FFD
:100DC0002A95D2F70197A109B1098E219F21A0236D
:100DD000B1230097A105B10521F081E090E0A0E0EA
:100DE000B0E09A01AB01282B392B4A2B5B2BDA019F
:100DF000C9018F779070A070B07080349105A10503
:100E0000B10539F427FF09C0205C3F4F4F4F5F4FBA
:100E100004C0215C3F4F4F4F5F4FE0E0F0E02030D7
:100E2000A0E03A07A0E04A07A0E45A0710F0E1E08A
:100E3000F0E079018A0127C06038710564F5FB0193
:100E4000E158FF4FD801C7018F779070A070B07044
:100E500080349105A105B10539F4E7FE0DC080E4A9
:100E600090E0A0E0B0E004C08FE390E0A0E0B0E04C
:100E7000E80EF91E0A1F1B1F17FF05C016950795E0
:100E8000F794E794319687E016950795F794E794E1
:100E90008A95D1F705C0EE24FF248701EFEFF0E03B
:100EA0006E2F679566276795902F9F77D794DD24DF
:100EB000D7948E2F8695492F462B582F5D29B70141
:100EC000CA011F910F91FF90EF90DF900895FC01F0
:100ED000DB01408151812281622F6F7770E0221FF8
:100EE0002227221F9381892F880F822B282F30E001
:100EF000991F9927991F11969C93119721153105D8
:100F0000A9F5411551056105710511F482E037C05D
:100F100082E89FEF13969C938E9312979A01AB01F0
:100F200067E0220F331F441F551F6A95D1F783E0F6
:100F30008C930DC0220F331F441F551F12968D91A5
:100F40009C911397019713969C938E931297203040
:100F500080E0380780E0480780E4580758F314968B
:100F60002D933D934D935C93179708952F3F310533
:100F700079F4411551056105710519F484E08C93EC
:100F8000089564FF03C081E08C9312C01C9210C0CE
:100F90002F57304013963C932E93129783E08C93F7
:100FA00087E0440F551F661F771F8A95D1F770643D
:100FB00014964D935D936D937C93179708952F929C
:100FC0003F924F925F926F927F928F929F92AF92D9
:100FD000BF92CF92DF92EF92FF920F931F93CF9326
:100FE000DF93CDB7DEB7CA1BDB0B0FB6F894DEBFBD
:100FF0000FBECDBF09942A88398848885F846E84E3
:101000007D848C849B84AA84B984C884DF80EE802C
:10101000FD800C811B81AA81B981CE0FD11D0FB635
:10102000F894DEBF0FBECDBFED010895FB01DC01DA
:1010300001900D920020E1F70895AEE0B0E0E3E208
:10104000F8E00C94ED070D891E8986E08C831A83E5
:1010500009838FEF9FE79E838D839E01275E3F4F1D
:10106000CE0101966F89788DA9010E9441082F81D8
:101070003885020F131FF80110822E96E4E00C94BD
:101080000908ABE0B0E0E7E4F8E00C94DF073C01CE
:101090002B015A01FC0117821682838181FD03C056
:1010A0006FEF7FEFC6C19AE0892E1E010894211CC4
:1010B000311CF3012381F20123FD859123FF8191EE
:1010C0002F01882309F4B2C1853239F423FD8591BB
:1010D00023FF81912F01853229F490E0B3010E9412
:1010E000340AE7CF982FFF24EE249924FFE1FF155F
:1010F000D0F09B3269F09C3228F4903259F0933250
:1011000091F40EC09D3249F0903369F441E024C05F
:1011100052E0F52A84E0F82A28C098E0F92A25C090
:10112000E0E1FE2A22C0F7FC29C0892F80538A30D3
:1011300070F4F6FE05C0989C902C1124980E15C0F2
:10114000E89CE02C1124E80EF0E2FF2A0EC09E324B
:1011500029F4F6FC6BC140E4F42A07C09C3619F46C
:1011600050E8F52A02C0983649F4F20123FD959122
:1011700023FF91912F01992309F0B8CF892F85542E
:10118000833018F08052833038F444E050E0A40EED
:10119000B51E5FE359830FC0933631F0933779F072
:1011A000933509F056C020C0F5018081898342E063
:1011B00050E0A40EB51E610101E010E012C0F5017F
:1011C000C080D180F6FC03C06FEF7FEF02C0692DB5
:1011D00070E042E050E0A40EB51EC6010E94290A4C
:1011E0008C015FE7F52214C0F501C080D180F6FCC8
:1011F00003C06FEF7FEF02C0692D70E042E050E066
:10120000A40EB51EC6010E941E0A8C0150E8F52AE4
:10121000F3FE07C01AC080E290E0B3010E94340AD6
:10122000EA948E2D90E008171907A8F30EC0F60176
:10123000F7FC8591F7FE81916F0190E0B3010E9468
:10124000340AE110EA94015010400115110579F7B4
:10125000EAC0943611F0993669F5F7FE08C0F50139
:10126000208131814281538184E090E00AC0F50100
:10127000808191819C01442737FD4095542F82E065
:1012800090E0A80EB91E9FE6F92257FF09C05095BD
:101290004095309521953F4F4F4F5F4FE0E8FE2A34
:1012A000CA01B901A1012AE030E00E94600AD82EEB
:1012B000D21840C0953729F41F2D1F7E2AE030E058
:1012C0001DC01F2D197F9F3661F0903720F498358F
:1012D00009F0ACC00FC0903739F0983709F0A6C0BC
:1012E00004C028E030E00AC0106114FD146020E161
:1012F00030E004C014FD166020E132E017FF08C0A2
:10130000F501608171818281938144E050E008C0E1
:10131000F50180819181BC0180E090E042E050E0E5
:10132000A40EB51EA1010E94600AD82ED2188FE724
:10133000F82EF122F6FE0BC05EEFF522D91438F438
:10134000F4FE07C0F2FC05C08FEEF82202C01D2D8E
:1013500001C0192DF4FE0DC0FE01ED0DF11D8081BF
:10136000803319F499EEF92208C01F5FF2FE05C020
:1013700003C08F2D867809F01F5F0F2DF3FC14C07A
:10138000F0FE0FC01E1510F09D2C0BC09D2C9E0C66
:10139000911A1E2D06C080E290E0B3010E94340A2B
:1013A0001F5F1E15C0F304C01E1510F4E11A01C022
:1013B000EE2404FF0FC080E390E0B3010E94340AE2
:1013C00002FF1DC001FD03C088E790E00EC088E564
:1013D00090E00BC0802F867891F001FF02C08BE275
:1013E00001C080E2F7FC8DE290E0B3010E94340A74
:1013F00006C080E390E0B3010E94340A9A94D914A5
:10140000C0F3DA94F101ED0DF11D808190E0B3019C
:101410000E94340ADD20A9F706C080E290E0B30103
:101420000E94340AEA94EE20C1F743CEF3016681AC
:101430007781CB012B96E2E10C94FB07FC01059030
:10144000615070400110D8F7809590958E0F9F1FC6
:101450000895FC016150704001900110D8F780950B
:1014600090958E0F9F1F08950F931F93CF93DF9337
:101470008C01EB018B8181FF1BC082FF0DC02E818F
:101480003F818C819D812817390764F4E881F981B7
:101490000193F983E88306C0E885F985802F0995D3
:1014A000892B31F48E819F8101969F838E8302C0A8
:1014B0000FEF1FEFC801DF91CF911F910F9108959A
:1014C000FA01AA27283051F1203181F1E8946F9375
:1014D0006E7F6E5F7F4F8F4F9F4FAF4FB1E03ED01B
:1014E000B4E03CD0670F781F891F9A1FA11D680FB9
:1014F000791F8A1F911DA11D6A0F711D811D911DEC
:10150000A11D20D009F468943F912AE0269F112460
:101510003019305D3193DEF6CF010895462F4770C4
:10152000405D4193B3E00FD0C9F7F6CF462F4F701F
:10153000405D4A3318F0495D31FD4052419302D07D
:10154000A9F7EACFB4E0A695979587957795679523
:10155000BA95C9F700976105710508959B01AC0123
:101560000A2E06945795479537952795BA95C9F74A
:10157000620F731F841F951FA01D0895F894FFCF5D
:1015800053657420426F756E6461726965733A00C9
:101590004D696E3A2025303264004D61783A20253D
:1015A000303264004D696E3A20253032642C204D73
:1015B00061783A2025303264002564204300256498
:1015C000204600050006000A000900010A00140078
:1015D00000000000000000000001020203030303FA
:1015E00004040404040404040505050505050505B3
:1015F0000505050505050505060606060606060693
:10160000060606060606060606060606060606067A
:101610000606060606060606070707070707070762
:10162000070707070707070707070707070707074A
:10163000070707070707070707070707070707073A
:10164000070707070707070707070707070707072A
:101650000707070707070707080808080808080812
:1016600008080808080808080808080808080808FA
:1016700008080808080808080808080808080808EA
:1016800008080808080808080808080808080808DA
:1016900008080808080808080808080808080808CA
:1016A00008080808080808080808080808080808BA
:1016B00008080808080808080808080808080808AA
:1016C000080808080808080808080808080808089A
:0816D0000808080808080808D2
:00000001FF
