:100000000C942B000C9453000C9453000C9453004C
:100010000C9416010C9453000C9453000C94530050
:100020000C9453000C9453000C9453000C94530004
:100030000C9453000C9453000C9453000C945300F4
:100040000C9453000C9453000C9453000C945300E4
:100050000C945300BD0011241FBECFE5D4E0DEBFD9
:10006000CDBF10E0A0E6B0E0E8E1F9E002C0059005
:100070000D92A437B107D9F710E0A4E7B0E001C0B2
:100080001D92AB37B107E1F710E0C6E5D0E004C040
:100090002297FE010E94AE01C435D107C9F70E9424
:1000A000CC000C948A040C9400009BB3282F207F72
:1000B0009F70292B2BBBD898D99A21E0922F9A9523
:1000C000F1F7D99892E49A95F1F79BB38295807FE6
:1000D0009F70982B9BBBD99A2A95F1F7D99884EFFA
:1000E00091E00197F1F708959BB3282F207F9F702F
:1000F000292B2BBBD89AD99A21E0922F9A95F1F708
:10010000D99892E49A95F1F79BB38295807F9F707E
:10011000982B9BBBD99A2A95F1F7D99884EF91E057
:100120000197F1F70895CF93DF93EC0103C00E948C
:100130007400219688818823D1F7DF91CF910895AB
:1001400081E00E9455008EEE92E00197F1F780E881
:100150000E94550008958AB3836F8ABB88E893E1B3
:100160000197F1F782E00E9455008CE00E94550053
:100170008EEE92E00197F1F7089580916F009091D3
:1001800070002091710030917200821B930B90934C
:1001900078008093770008950F931F93DF93CF9398
:1001A000CDB7DEB728970FB6F894DEBF0FBECDBF30
:1001B0000E94AB008DB79EB70A970FB6F8949EBF0A
:1001C0000FBE8DBFEDB7FEB731968E010F5F1F4F8B
:1001D000ADB7BEB712961C930E93119780E690E0D0
:1001E0009383828380917600848315828091750049
:1001F0008683178280917400808711860E94B201E5
:100200008DB79EB70A960FB6F8949EBF0FBE8DBFEE
:10021000C8010E94930089B7806489BF85B5816059
:1002200085BD8091770084BD7894FFCF1F920F9297
:100230000FB60F9211240F931F932F933F934F9359
:100240005F936F937F938F939F93AF93BF93EF933E
:10025000FF93DF93CF93CDB7DEB72897DEBFCDBF37
:100260008091790090917A00019690937A00809322
:1002700079008C539F4009F057C081E00E945500DF
:1002800010927A0010927900809174008F5F8093B1
:1002900074008C3339F410927400809175008F5F74
:1002A00080937500809175008C3339F4109275003D
:1002B000809176008F5F8093760080917600883100
:1002C00011F4109276008DB79EB70A970FB6F89486
:1002D0009EBF0FBE8DBFEDB7FEB731968E010F5F8B
:1002E0001F4FADB7BEB712961C930E93119780E6C1
:1002F00090E093838283809176008483158280913D
:1003000075008683178280917400808711860E9411
:10031000B2018DB79EB70A960FB6F8949EBF0FBE76
:100320008DBFC8010E9493002896DEBFCDBFCF913C
:10033000DF91FF91EF91BF91AF919F918F917F914D
:100340006F915F914F913F912F911F910F910F905E
:100350000FBE0F901F901895EE0FFF1F0590F491A0
:10036000E02D0994AEE0B0E0E8EBF1E00C9461041C
:100370000D891E8986E08C831A8309838FEF9FE79E
:100380009E838D839E01275E3F4FCE0101966F892C
:10039000788DA9010E94D6012F813885020F131F85
:1003A000F80110822E96E4E00C947D04ABE0B0E0FE
:1003B000ECEDF1E00C9453043C012B015A01FC01DB
:1003C00017821682838181FD03C06FEF7FEFC6C164
:1003D0009AE0892E1E010894211C311CF30123810F
:1003E000F20123FD859123FF81912F01882309F4D8
:1003F000B2C1853239F423FD859123FF81912F010C
:10040000853229F490E0B3010E94C903E7CF982F09
:10041000FF24EE249924FFE1FF15D0F09B3269F010
:100420009C3228F4903259F0933291F40EC09D32F0
:1004300049F0903369F441E024C052E0F52A84E0A9
:10044000F82A28C098E0F92A25C0E0E1FE2A22C057
:10045000F7FC29C0892F80538A3070F4F6FE05C05E
:10046000989C902C1124980E15C0E89CE02C112427
:10047000E80EF0E2FF2A0EC09E3229F4F6FC6BC1B2
:1004800040E4F42A07C09C3619F450E8F52A02C06B
:10049000983649F4F20123FD959123FF91912F01A4
:1004A000992309F0B8CF892F8554833018F08052F2
:1004B000833038F444E050E0A40EB51E5FE3598366
:1004C0000FC0933631F0933779F0933509F056C069
:1004D00020C0F5018081898342E050E0A40EB51E62
:1004E000610101E010E012C0F501C080D180F6FC8E
:1004F00003C06FEF7FEF02C0692D70E042E050E073
:10050000A40EB51EC6010E94BE038C015FE7F52252
:1005100014C0F501C080D180F6FC03C06FEF7FEFFF
:1005200002C0692D70E042E050E0A40EB51EC60185
:100530000E94B3038C0150E8F52AF3FE07C01AC0ED
:1005400080E290E0B3010E94C903EA948E2D90E00E
:1005500008171907A8F30EC0F601F7FC8591F7FEFE
:1005600081916F0190E0B3010E94C903E110EA9408
:10057000015010400115110579F7EAC0943611F0C9
:10058000993669F5F7FE08C0F50120813181428175
:10059000538184E090E00AC0F501808191819C0143
:1005A000442737FD4095542F82E090E0A80EB91EF5
:1005B0009FE6F92257FF09C0509540953095219547
:1005C0003F4F4F4F5F4FE0E8FE2ACA01B901A1013A
:1005D0002AE030E00E94F503D82ED21840C09537AB
:1005E00029F41F2D1F7E2AE030E01DC01F2D197F2A
:1005F0009F3661F0903720F4983509F0ACC00FC0F9
:10060000903739F0983709F0A6C004C028E030E0F0
:100610000AC0106114FD146020E130E004C014FD34
:10062000166020E132E017FF08C0F501608171819A
:100630008281938144E050E008C0F501808191817E
:10064000BC0180E090E042E050E0A40EB51EA101A4
:100650000E94F503D82ED2188FE7F82EF122F6FE6D
:100660000BC05EEFF522D91438F4F4FE07C0F2FC9B
:1006700005C08FEEF82202C01D2D01C0192DF4FE19
:100680000DC0FE01ED0DF11D8081803319F499EE4E
:10069000F92208C01F5FF2FE05C003C08F2D8678C7
:1006A00009F01F5F0F2DF3FC14C0F0FE0FC01E15E4
:1006B00010F09D2C0BC09D2C9E0C911A1E2D06C077
:1006C00080E290E0B3010E94C9031F5F1E15C0F3D2
:1006D00004C01E1510F4E11A01C0EE2404FF0FC07F
:1006E00080E390E0B3010E94C90302FF1DC001FD39
:1006F00003C088E790E00EC088E590E00BC0802F33
:10070000867891F001FF02C08BE201C080E2F7FC25
:100710008DE290E0B3010E94C90306C080E390E03F
:10072000B3010E94C9039A94D914C0F3DA94F10179
:10073000ED0DF11D808190E0B3010E94C903DD2021
:10074000A9F706C080E290E0B3010E94C903EA94D1
:10075000EE20C1F743CEF30166817781CB012B9662
:10076000E2E10C946F04FC010590615070400110AF
:10077000D8F7809590958E0F9F1F0895FC016150CA
:10078000704001900110D8F7809590958E0F9F1FB3
:1007900008950F931F93CF93DF938C01EB018B810F
:1007A00081FF1BC082FF0DC02E813F818C819D8106
:1007B0002817390764F4E881F9810193F983E88304
:1007C00006C0E885F985802F0995892B31F48E8143
:1007D0009F8101969F838E8302C00FEF1FEFC80198
:1007E000DF91CF911F910F910895FA01AA27283028
:1007F00051F1203181F1E8946F936E7F6E5F7F4FEE
:100800008F4F9F4FAF4FB1E03ED0B4E03CD0670F69
:10081000781F891F9A1FA11D680F791F8A1F911DBC
:10082000A11D6A0F711D811D911DA11D20D009F40C
:1008300068943F912AE0269F11243019305D31934E
:10084000DEF6CF010895462F4770405D4193B3E037
:100850000FD0C9F7F6CF462F4F70405D4A3318F0DE
:10086000495D31FD4052419302D0A9F7EACFB4E08F
:10087000A6959795879577956795BA95C9F7009747
:100880006105710508959B01AC010A2E06945795E8
:10089000479537952795BA95C9F7620F731F841F3F
:1008A000951FA01D08952F923F924F925F926F92D5
:1008B0007F928F929F92AF92BF92CF92DF92EF92F0
:1008C000FF920F931F93CF93DF93CDB7DEB7CA1B71
:1008D000DB0B0FB6F894DEBF0FBECDBF09942A889C
:1008E000398848885F846E847D848C849B84AA8444
:1008F000B984C884DF80EE80FD800C811B81AA81D1
:10090000B981CE0FD11D0FB6F894DEBF0FBECDBF9B
:08091000ED010895F894FFCFFA
:10091800253032643A253032643A2530326400009A
:0409280001FA0000D0
:00000001FF
